:10000000A5C00000BEC00000BCC00000BAC0000017
:10001000B8C00000B6C00000B4C00000B2C000000C
:10002000B0C00000AEC00000ECC20000B0C30000D1
:10003000A8C00000A6C00000A4C00000A2C000002C
:10004000A0C000009EC000009CC000009AC000003C
:1000500098C0000096C0000094C0000092C000004C
:1000600090C000008EC000008CC000008AC000005C
:1000700088C0000086C0000084C0000082C000006C
:1000800080C000007EC000007CC000007AC000007C
:1000900078C0000076C0000074C0000072C000008C
:1000A00070C000006EC000006CC0000029044B044A
:1000B0002D054B042D058D04AE042D0500051205FC
:1000C0001C034C0055004600410020004300440042
:1000D00043002000440065006D006F00000018031D
:1000E0004400650061006E002000430061006D0067
:1000F00065007200610000000403090409023E006B
:10010000020100C0320904000001020201000524BE
:1001100000100104240206052406000107058203DD
:100120000800FF09040100020A000000070504029C
:1001300010000507058302100005120110010200DE
:100140000008EB03442001000102DC0111241FBE62
:10015000CFEFDAE0DEBFCDBF11E0A0E0B1E0E6E432
:10016000FCE002C005900D92AC31B107D9F721E057
:10017000ACE1B1E001C01D92A832B207E1F77CD03A
:1001800060C53ECF8D9880628EBD0DB407FEFDCF59
:100190008EB56EBD0DB407FEFDCF8EB58D9A089558
:1001A0008D9880EA8EBD0DB407FEFDCF8EB581E639
:1001B0008EBD0DB407FEFDCF8EB58D9A089584B720
:1001C000877F84BF88E10FB6F89480936000109217
:1001D00060000FBE90E080E80FB6F8948093610055
:1001E000909361000FBE209A289A559A5D9A869A3C
:1001F000859A26988E988D9A84B1866084B980E518
:100200008CBD8DB581608DBD6EE380E0BBDF8FE17D
:100210009EE40197F1F700C0000060E081E0B2DFEA
:1002200061E083E0AFDF60E084E0ACDF6DE485E0B7
:10023000A9DF6EE086E0A6DF61E081E1A3DF60E098
:100240008DE1A0DF8D9882EE8EBD0DB407FEFDCF4F
:100250008EB58D9A8D9881EE8EBD0DB407FEFDCFC3
:100260008EB58D9A60E787E08DDF259A2D98519A9B
:1002700059985098589A0895A2DF8D981EBC0DB4D5
:1002800007FEFDCF8EB58FEF8EBD0DB407FEFDCFFF
:100290006EB58D9A6E7F80E075DF87E092E0019702
:1002A000F1F700C000008E9887E092E00197F1F727
:1002B00000C0000075DF4899FECF28982D9A95E878
:1002C0009A95F1F700002D988E9A2AE62A95F1F773
:1002D00000C08E9865DF8FEF91EE24E08150904052
:1002E0002040E1F700C00000489BFECF8FEF91EE69
:1002F00024E0815090402040E1F700C00000289A9F
:10030000DACF0895089580E091E0C0C380E091E0E5
:10031000E3C3292F33272230310559F0233031052B
:1003200069F021303105F9F482E190E02AE331E00F
:100330001EC08EE390E02CEF30E019C09927813089
:10034000910541F08230910541F0892B61F4E8EF8D
:10035000F0E005C0EEEDF0E002C0E0ECF0E08491EA
:1003600090E09F0104C080E090E020E030E0FA01DE
:10037000318320830895209126013091270126178B
:10038000370748F06115710539F42091E8002E77A0
:100390002093E80001C0B901FC0120E0611571055E
:1003A000A1F18EB38823E1F18530E1F18091E8007D
:1003B00083FD34C08091E80082FF06C08091E80090
:1003C00082FF26C080E008958091E80080FFE6CF9C
:1003D0002091F3008091F20090E0922B611571055D
:1003E00051F08830910538F421912093F10061504B
:1003F00071090196F3CF21E0089709F020E0809180
:10040000E8008E778093E800C9CF2111CACFD6CFFC
:100410008EB3882329F0853089F604C081E00895E1
:1004200082E0089583E0089520912601309127010C
:100430002617370748F06115710539F42091E80057
:100440002E772093E80001C0B901FC0120E061157E
:100450007105B9F18EB3882309F43EC0853009F4E3
:100460003DC08091E80083FD35C08091E80082FFA7
:1004700006C08091E80082FF27C080E00895809147
:10048000E80080FFE4CF2091F3008091F20090E03B
:10049000922B6115710559F08830910540F4249133
:1004A0002093F1003196615071090196F2CF21E05D
:1004B000089709F020E08091E8008E778093E800AB
:1004C000C6CF2111C7CFD5CF8EB3882329F0853071
:1004D00081F604C081E0089582E0089583E00895E4
:1004E000982F973058F59093E900981739F070914C
:1004F000EC002091ED005091F00003C0242F762FE6
:1005000050E021FF19C03091EB003E7F3093EB00AB
:100510003091ED003D7F3093ED003091EB00316084
:100520003093EB007093EC002093ED005093F000BB
:100530002091EE0027FF07C09F5FD3CF8F7080937D
:10054000E90081E0089580E008950F931F93CF9311
:10055000DF93062FEC0110E0101771F198819923B9
:1005600041F12C81E981FA817B81892F8F7087305D
:1005700010F080E022C0223010F056E001C052E0BE
:1005800028E030E040E02E173F0720F44F5F220FB5
:10059000331FF9CF4295407F452B692F661F662791
:1005A000661F90E4799F90011124622B99DF8823C4
:1005B00001F31F5F2596D0CF81E0DF91CF911F918E
:1005C0000F9108958091200187FD05C08091E8007A
:1005D00080FF0DC010C08091E80082FD04C08EB382
:1005E0008111F9CF08958091E8008B7707C08EB311
:1005F0008111ECCF08958091E8008E778093E80018
:1006000008951F920F920FB60F9211242F933F93CC
:100610004F935F936F937F938F939F93AF93BF930A
:10062000EF93FF938091E10082FF0AC08091E20086
:1006300082FF06C08091E1008B7F8093E10025D28C
:100640008091DA0080FF1BC08091D80080FF17C026
:100650008091DA008E7F8093DA008091D90080FF4C
:100660000BC080E189BD82E189BD09B400FEFDCFE8
:1006700081E08EBB46DE03C019BC1EBA43DE80910A
:10068000E10080FF17C08091E20080FF13C08091DD
:10069000E2008E7F8093E2008091E200806180938F
:1006A000E2008091D80080628093D80019BC85E078
:1006B0008EBBEBD18091E10084FF2EC08091E200DF
:1006C00084FF2AC080E189BD82E189BD09B400FEB2
:1006D000FDCF8091D8008F7D8093D8008091E1007C
:1006E0008F7E8093E1008091E2008F7E8093E20014
:1006F0008091E20081608093E20080911C01882358
:1007000011F084E007C08091E30087FF02C083E01E
:1007100001C081E08EBBB9D18091E10083FF26C08A
:100720008091E20083FF22C08091E100877F809367
:10073000E10082E08EBB10921C018091E1008E7F6F
:100740008093E1008091E2008E7F8093E2008091AF
:10075000E20080618093E20042E060E080E0C0DE81
:100760008091F00088608093F0008FD1FF91EF912D
:10077000BF91AF919F918F917F916F915F914F91B9
:100780003F912F910F900FBE0F901F9018951F92C1
:100790000F920FB60F9211242F933F934F935F93B5
:1007A0006F937F938F939F93AF93BF93CF93EF9369
:1007B000FF93C091E900CF708091EC001092E900A6
:1007C0008091F000877F8093F00078941BD0109286
:1007D000E9008091F00088608093F000C093E90008
:1007E000FF91EF91CF91BF91AF919F918F917F91A9
:1007F0006F915F914F913F912F910F900FBE0F908E
:100800001F9018951F93CF93DF93CDB7DEB7AA97AC
:100810000FB6F894DEBF0FBECDBFE0E2F1E08091ED
:10082000F100819321E0E832F207C9F76FDD809192
:10083000E80083FF12C12091200130912101832F14
:1008400090E08A30910508F008C1FC01EA5AFF4F98
:10085000F2C1203881F0223809F0FFC080912401D4
:100860008F708093E9008091EB0085FB882780F9E9
:100870001092E90006C080911D0190911E01911116
:1008800082609091E800977F9093E8008093F10058
:100890001092F100C0C0822F8D7F09F0DEC02223AC
:1008A00019F0223061F0D9C080912201813009F025
:1008B000D4C0333009F080E080931E0128C08091BD
:1008C0002201811124C0209124012F7009F4C5C098
:1008D0002093E9008091EB0080FF19C08091EB002C
:1008E000333011F4806211C080618093EB0081E0AD
:1008F00090E0022E01C0880F0A94EAF78093EA0084
:100900001092EA008091EB0088608093EB001092D7
:10091000E9008091E800877F81C021119EC010917D
:1009200022011F778091E3008078812B8093E30080
:100930008091E800877F8093E80044DE8091E800A2
:1009400080FFFCCF8091E30080688093E300112357
:1009500011F083E001C082E08EBB7FC020582230BE
:1009600008F07BC080912201909123018C3D23E00F
:10097000920771F583E08A838AE289834FB7F894FE
:10098000DE01139620E03EE051E2E32FF0E05093C9
:100990005700E49120FF03C0E295EF703F5FEF70D6
:1009A0008E2F90E0EA3010F0C79601C0C0968D936C
:1009B0009D932F5F243149F74FBF8091E800877FD7
:1009C0008093E8006AE270E0CE010196D4DC12C0A8
:1009D000AE014F5F5F4F609124019BDC009709F4EB
:1009E0003CC02091E800277F2093E800BC0189816A
:1009F0009A811ADD8091E8008B778093E8002DC002
:100A0000203859F58091E800877F8093E800809135
:100A10001C018093F1008091E8008E778093E800BC
:100A2000D1DD1BC0211119C0909122019230A8F490
:100A30008091E800877F8093E80090931C01C2DDDD
:100A400080911C01811104C08091E30087FF02C0E6
:100A500084E001C081E08EBB56DC8091E80083FF1A
:100A60000AC08091E800877F8093E8008091EB00C6
:100A700080628093EB00AA960FB6F894DEBF0FBE9B
:100A8000CDBFDF91CF911F9108950895CF93DF934C
:100A9000EC01FC0170968BE0DF011D928A95E9F76D
:100AA00082E08C83898783E08E8761E0CE010196A6
:100AB0004CDD882361F061E0CE01069646DD882397
:100AC00031F061E0CE010B96DF91CF913ECD80E019
:100AD000DF91CF9108950895CF93DF93EC0180913A
:100AE000E80083FFA5C0888190E020912401309127
:100AF00025012817390709F09BC080912101813217
:100B000061F020F4803209F43EC092C0823209F4D0
:100B10006BC0833209F47CC08BC080912001813A84
:100B200009F086C08091E800877F8093E80080917B
:100B3000E80080FFFCCF4C895D896E897F894093F6
:100B4000F100BB27A72F962F852F8093F100CB01B3
:100B5000AA27BB278093F100472F552766277727C1
:100B60004093F100888D8093F100898D8093F1008E
:100B70008A8D8093F1008091E8008E778093E80061
:100B8000DF91CF911FCD80912001813209F050C0BB
:100B90008091E800877F8093E8008091E80082FDE3
:100BA00004C08EB38111F9CF43C03091F100209180
:100BB000F1009091F1008091F1003C8B2D8B9E8B88
:100BC0008F8B8091F100888F8091F100898F8091C7
:100BD000F1008A8F8091E8008B778093E800F2DC47
:100BE000CE01DF91CF9177CF80912001813201F545
:100BF0008091E800877F8093E800E4DC8091220107
:100C000090912301998B888BCE01DF91CF9163CF97
:100C100080912001813261F48091E800877F809388
:100C2000E800D0DC60912201CE01DF91CF9153CF5B
:100C3000DF91CF910895EE0FFF1F0590F491E02D05
:060C40000994F894FFCFB7
:100C4600008310000001041000000182080000016A
:0C0C560000000000000000000000000092
:00000001FF
