:1000000022C100003CC100003AC1000038C100001C
:1000100036C1000034C1000032C1000030C1000010
:100020002EC100002CC1000014C50000D8C500007E
:1000300026C1000024C1000022C1000020C1000030
:100040001EC100001CC100001AC1000018C1000040
:1000500016C1000014C1000012C1000010C1000050
:100060000EC100000CC100000AC1000008C1000060
:1000700006C1000021C1000002C1000000C1000053
:10008000FEC00000FCC00000FAC00000F8C0000084
:10009000F6C00000F4C00000F2C00000F0C0000094
:1000A000EEC00000ECC00000EAC00000510673067C
:1000B000550773065507B506D606550728073A07AC
:1000C0001C034C0055004600410020004300440042
:1000D00043002000440065006D006F00000018031D
:1000E0004400650061006E002000430061006D0067
:1000F00065007200610000000403090409023E006B
:10010000020100C0320904000001020201000524BE
:1001100000100104240206052406000107058203DD
:100120000800FF09040100020A000000070504029C
:1001300010000507058302100005120110010200DE
:100140000008EB03442001000102DC0100407A10AA
:10015000F35A00A0724E18090010A5D4E80000E878
:100160007648170000E40B54020000CA9A3B0000D6
:1001700000E1F505000080969800000040420F0065
:100180000000A08601000000102700000000E80326
:10019000000000006400000000000A0000000000F1
:1001A0000100000000002C76D888DC674F0823DFB0
:1001B000C1DFAE59E1B1B796E5E3E453C63AE65183
:1001C000997696E8E6C28426EB898C9B62ED407CAA
:1001D0006FFCEFBC9C9F40F2BAA56FA5F490055A46
:1001E0002AF75C936B6CF9676DC11BFCE0E40D476B
:1001F000FEF520E6B500D0ED902E0300943577058E
:100200000080841E080000204E0A000000C80C3345
:100210003333330F986E12831141EF8D2114893BD4
:10022000E65516CFFEE6DB18D1844B381BF77C1D54
:10023000901DA4BBE424203284725E228100C9F1A7
:1002400024ECA1E53D2711241FBECFEFDAE0DEBF8D
:10025000CDBF11E0A0E0B1E0EAE2F9E102C0059013
:100260000D92AE31B107D9F721E0AEE1B1E001C0A6
:100270001D92AC32B207E1F729D10C94930CC0CE99
:100280008D9880628EBD0DB407FEFDCF8EB56EBD1C
:100290000DB407FEFDCF8EB58D9A08958D988EBD55
:1002A0000DB407FEFDCF8EB58FEF8EBD0DB407FEEA
:1002B000FDCF8EB58D9A08951F920F920FB60F92B3
:1002C0001124EF92FF920F931F932F933F934F931D
:1002D0005F936F937F938F939F93AF93BF93EF93AE
:1002E000FF93CF93DF93CDB7DEB76497DEBFCDBF6B
:1002F00080911E0190911F018037974108F05CC0EA
:100300002898E0907800F090790080911E019091FB
:100310001F01019690931F0180931E01809100019F
:10032000909101018E159F0508F040C08091000159
:10033000909101019701281B390B2B303105B0F149
:1003400060911E0170911F0180E090E0E3D720E0F2
:1003500030E846EC53E411D720E030E040E652E4C8
:1003600071D78E010F5F1F4F22E042E00E941E0AEC
:100370008DE68D838AE08E8346E050E0B80182E00E
:1003800091E0ECD580917A008F7780937A0080910C
:100390007A00806180937A0010921F0110921E01F2
:1003A0008FEF9FEF9093010180930001F092010184
:1003B000E0920001289A14C080917A008F77809390
:1003C0007A0080917A00806180937A0010921F01F8
:1003D00010921E018FEF9FEF909301018093000117
:1003E00064960FB6F894DEBF0FBECDBFDF91CF91FC
:1003F000FF91EF91BF91AF919F918F917F916F91FD
:100400005F914F913F912F911F910F91FF90EF902E
:100410000F900FBE0F901F90189584B7877F84BFF1
:1004200088E10FB6F89480936000109260000FBED0
:1004300090E080E80FB6F89480936100909361009B
:100440000FBE209A289A559A5D9A869A859A269880
:100450008E988D9A84B1866084B980E58CBD8DB507
:1004600081608DBD6EE380E00BDF8FE19EE401973C
:10047000F1F700C0000060E081E002DF61E083E0AE
:10048000FFDE60E084E0FCDE6DE485E0F9DE6EE036
:1004900086E0F6DE61E081E1F3DE60E08DE1F0DE32
:1004A0008D9882EE8EBD0DB407FEFDCF8EB58D9A70
:1004B0008D9881EE8EBD0DB407FEFDCF8EB58D9A61
:1004C00060E787E0DDDE259A2D98A6C2CF93DF9303
:1004D0001F92CDB7DEB7A1DF789480E0DFDE682F12
:1004E000616080E0CDDE87E092E00197F1F700C027
:1004F00000008E9A87E092E00197F1F700C00000BB
:1005000087988F9880E880937E0087E480937C00B2
:1005100080917A008F7780937A0080917A0088604A
:1005200080937A0080917A00806280937A00809133
:100530007A00866080937A0080917B008068809347
:100540007B00789481E6F82EEE24EA940FEF1FEFFB
:1005500087E1A4DE8983898180FD24C08D98FEBC5B
:100560000DB407FEFDCF8EB5EEBC0DB407FEFDCF7A
:100570008EB58D9A8136B1F480911E0190911F0144
:10058000892B81F45D981093010100930001809103
:100590007A00806880937A0080917A0080648093EA
:1005A0007A005D9A82E091E023D598D4D1CF089566
:1005B000089582E091E0ADC482E091E02FC5292F3B
:1005C00033272230310559F02330310569F02130CD
:1005D0003105F9F482E190E02AE331E01EC08EE3B8
:1005E00090E02CEF30E019C099278130910541F05F
:1005F0008230910541F0892B61F4E8EFF0E005C00D
:10060000EEEDF0E002C0E0ECF0E0849190E09F01BC
:1006100004C080E090E020E030E0FA0131832083E4
:100620000895CF92DF92EF92FF920F931F93CF9393
:10063000DF937C018B01EA0181D1811130C02097C9
:1006400031F088819981081B190BE80EF91EC12C25
:10065000D12C0115110511F18091E80085FD13C021
:100660008091E8008E778093E800209741F08881A0
:1006700099818C0D9D1D9983888385E010C05ED182
:10068000882339F30CC0F70181917F018093F10039
:1006900001501109FFEFCF1ADF0ADBCF80E0DF91B5
:1006A000CF911F910F91FF90EF90DF90CF90089521
:1006B00020912A0130912B012617370748F0611548
:1006C000710539F42091E8002E772093E80001C0ED
:1006D000B901FC0120E061157105A1F18EB38823F9
:1006E000E1F18530E1F18091E80083FD34C0809133
:1006F000E80082FF06C08091E80082FF26C080E00B
:1007000008958091E80080FFE6CF2091F30080916A
:10071000F20090E0922B6115710551F0883091053F
:1007200038F421912093F100615071090196F3CFC3
:1007300021E0089709F020E08091E8008E7780930F
:10074000E800C9CF2111CACFD6CF8EB3882329F0B4
:10075000853089F604C081E0089582E0089583E041
:10076000089520912A0130912B012617370748F070
:100770006115710539F42091E8002E772093E80087
:1007800001C0B901FC0120E061157105B9F18EB31A
:10079000882309F43EC0853009F43DC08091E8000B
:1007A00083FD35C08091E80082FF06C08091E8009B
:1007B00082FF27C080E008958091E80080FFE4CFA9
:1007C0002091F3008091F20090E0922B6115710569
:1007D00059F08830910540F424912093F10031962E
:1007E000615071090196F2CF21E0089709F020E0ED
:1007F0008091E8008E778093E800C6CF2111C7CFA3
:10080000D5CF8EB3882329F0853081F604C081E0EE
:10081000089582E0089583E00895982F973058F561
:100820009093E900981739F07091EC002091ED0059
:100830005091F00003C0242F762F50E021FF19C003
:100840003091EB003E7F3093EB003091ED003D7F27
:100850003093ED003091EB0031603093EB007093FA
:10086000EC002093ED005093F0002091EE0027FF64
:1008700007C09F5FD3CF8F708093E90081E0089518
:1008800080E008950F931F93CF93DF93062FEC0121
:1008900010E0101771F19881992341F12C81E981C1
:1008A000FA817B81892F8F70873010F080E022C021
:1008B000223010F056E001C052E028E030E040E085
:1008C0002E173F0720F44F5F220F331FF9CF4295B9
:1008D000407F452B692F661F6627661F90E4799F2E
:1008E00090011124622B99DF882301F31F5F259665
:1008F000D0CF81E0DF91CF911F910F91089580912A
:10090000240187FD05C08091E80080FF0DC010C064
:100910008091E80082FD04C08EB38111F9CF089563
:100920008091E8008B7707C08EB38111ECCF0895DA
:100930008091E8008E778093E80008958091E4002C
:100940009091E50045E62091EC0020FF20C0209129
:10095000E80020FD20C02EB3222389F0253089F045
:100960002091EB0025FD0FC02091E4003091E500BF
:100970002817390741F3415041F0C901E4CF82E023
:10098000089583E0089581E0089584E0089520911A
:10099000E80022FFE0CF80E008950F931F93CF93EC
:1009A000DF934AD051D0C8EDD0E088818F7788831B
:1009B00088818068888388818F7D888319BC1EBA6E
:1009C00010922001109222011092210100EE10E0FD
:1009D000F80180818B7F808388818160888342E0F9
:1009E00060E080E01ADFE1EEF0E080818E7F8083BE
:1009F000E2EEF0E080818160808380818860808386
:100A0000F80180818E7F8083888180618883DF9177
:100A1000CF911F910F910895E8EDF0E080818F7ED6
:100A20008083E7EDF0E080818160808384E082BF95
:100A300081E080932301B1CFE8EDF0E080818E7FEB
:100A400080831092E20008951092DA001092E10083
:100A500008951F920F920FB60F9211242F933F9378
:100A60004F935F936F937F938F939F93AF93BF93B6
:100A7000EF93FF938091E10082FF0AC08091E20032
:100A800082FF06C08091E1008B7F8093E10025D238
:100A90008091DA0080FF1BC08091D80080FF17C0D2
:100AA0008091DA008E7F8093DA008091D90080FFF8
:100AB0000BC080E189BD82E189BD09B400FEFDCF94
:100AC00081E08EBB74DD03C019BC1EBA71DD80915C
:100AD000E10080FF17C08091E20080FF13C0809189
:100AE000E2008E7F8093E2008091E200806180933B
:100AF000E2008091D80080628093D80019BC85E024
:100B00008EBBEBD18091E10084FF2EC08091E2008A
:100B100084FF2AC080E189BD82E189BD09B400FE5D
:100B2000FDCF8091D8008F7D8093D8008091E10027
:100B30008F7E8093E1008091E2008F7E8093E200BF
:100B40008091E20081608093E200809120018823FF
:100B500011F084E007C08091E30087FF02C083E0CA
:100B600001C081E08EBBB9D18091E10083FF26C036
:100B70008091E20083FF22C08091E100877F809313
:100B8000E10082E08EBB109220018091E1008E7F17
:100B90008093E1008091E2008E7F8093E20080915B
:100BA000E20080618093E20042E060E080E035DEB8
:100BB0008091F00088608093F0008FD1FF91EF91D9
:100BC000BF91AF919F918F917F916F915F914F9165
:100BD0003F912F910F900FBE0F901F9018951F926D
:100BE0000F920FB60F9211242F933F934F935F9361
:100BF0006F937F938F939F93AF93BF93CF93EF9315
:100C0000FF93C091E900CF708091EC001092E90051
:100C10008091F000877F8093F00078941BD0109231
:100C2000E9008091F00088608093F000C093E900B3
:100C3000FF91EF91CF91BF91AF919F918F917F9154
:100C40006F915F914F913F912F910F900FBE0F9039
:100C50001F9018951F93CF93DF93CDB7DEB7AA9758
:100C60000FB6F894DEBF0FBECDBFE4E2F1E0809195
:100C7000F100819321E0EC32F207C9F79DDC80910D
:100C8000E80083FF12C12091240130912501832FB8
:100C900090E08A30910508F008C1FC01EA5AFF4F44
:100CA000C7C3203881F0223809F0FFC080912801A5
:100CB0008F708093E9008091EB0085FB882780F995
:100CC0001092E90006C080912101909122019111BA
:100CD00082609091E800977F9093E8008093F10004
:100CE0001092F100C0C0822F8D7F09F0DEC0222358
:100CF00019F0223061F0D9C080912601813009F0CD
:100D0000D4C0333009F080E08093220128C0809164
:100D10002601811124C0209128012F7009F4C5C03B
:100D20002093E9008091EB0080FF19C08091EB00D7
:100D3000333011F4806211C080618093EB0081E058
:100D400090E0022E01C0880F0A94EAF78093EA002F
:100D50001092EA008091EB0088608093EB00109283
:100D6000E9008091E800877F81C021119EC0109129
:100D700026011F778091E3008078812B8093E30028
:100D80008091E800877F8093E800B9DD8091E800DA
:100D900080FFFCCF8091E30080688093E300112303
:100DA00011F083E001C082E08EBB7FC0205822306A
:100DB00008F07BC080912601909127018C3D23E0B3
:100DC000920771F583E08A838AE289834FB7F894AA
:100DD000DE01139620E03EE051E2E32FF0E0509375
:100DE0005700E49120FF03C0E295EF703F5FEF7082
:100DF0008E2F90E0EA3010F0C79601C0C0968D9318
:100E00009D932F5F243149F74FBF8091E800877F82
:100E10008093E8006AE270E0CE01019649DC12C0DE
:100E2000AE014F5F5F4F60912801C9DB009709F465
:100E30003CC02091E800277F2093E800BC01898115
:100E40009A818FDC8091E8008B778093E8002DC039
:100E5000203859F58091E800877F8093E8008091E1
:100E600020018093F1008091E8008E778093E80064
:100E700046DD1BC0211119C0909126019230A8F4C3
:100E80008091E800877F8093E8009093200137DD10
:100E900080912001811104C08091E30087FF02C08E
:100EA00084E001C081E08EBB84DB8091E80083FF99
:100EB0000AC08091E800877F8093E8008091EB0072
:100EC00080628093EB00AA960FB6F894DEBF0FBE47
:100ED000CDBFDF91CF911F9108950895CF938EB329
:100EE0008823A9F08091E9008F709091EC0090FF29
:100EF00002C090E801C090E0C92FC82B1092E90011
:100F00008091E80083FDA6DECF70C093E900CF9109
:100F10000895CF93DF93EC01FC0170968BE0DF0125
:100F20001D928A95E9F782E08C83898783E08E871A
:100F300061E0CE010196A6DC882361F061E0CE017C
:100F40000696A0DC882331F061E0CE010B96DF919C
:100F5000CF9198CC80E0DF91CF9108950F931F93AC
:100F6000FC01CB01BA012EB3243089F40489158920
:100F700026893789012B022B032B49F021812F7001
:100F80002093E90040E050E01F910F914ACB82E0AE
:100F90001F910F9108952EB3243041F5FC0144892F
:100FA000558966897789452B462B472BF9F0818136
:100FB0008F708093E9002091F3008091F20090E01F
:100FC000922B892B89F09091E8008091E8008E7730
:100FD0008093E80095FD08C0B1DC811108C08091C4
:100FE000E8008E778093E80080E0089582E008951D
:100FF0002EB3243089F4FC014489558966897789A8
:10100000452B462B472B41F021812F702093E9007F
:101010002091E80020FDBFCF08950895CF93DF937E
:10102000EC018091E80083FFA5C0888190E02091C9
:101030002801309129012817390709F09BC08091B8
:101040002501813261F020F4803209F43EC092C063
:10105000823209F46BC0833209F47CC08BC080916A
:101060002401813A09F086C08091E800877F80934F
:10107000E8008091E80080FFFCCF4C895D896E8993
:101080007F894093F100BB27A72F962F852F809350
:10109000F100CB01AA27BB278093F100472F5527EA
:1010A000662777274093F100888D8093F100898D22
:1010B0008093F1008A8D8093F1008091E8008E7713
:1010C0008093E800DF91CF911ACC80912401813286
:1010D00009F050C08091E800877F8093E8008091FC
:1010E000E80082FD04C08EB38111F9CF43C0309176
:1010F000F1002091F1009091F1008091F1003C8B82
:101100002D8B9E8B8F8B8091F100888F8091F100C9
:10111000898F8091F1008A8F8091E8008B7780938E
:10112000E800EDDBCE01DF91CF9177CF80912401F4
:10113000813201F58091E800877F8093E800DFDB52
:101140008091260190912701998B888BCE01DF91A8
:10115000CF9163CF80912401813261F48091E800C6
:10116000877F8093E800CBDB60912601CE01DF9181
:10117000CF9153CFDF91CF9108955058BB27AA2725
:101180000ED01CC10DD130F012D120F031F49F3FB0
:1011900011F41EF402C10EF4E095E7FBF8C0E92F4C
:1011A0001ED180F3BA17620773078407950718F0FA
:1011B00071F49EF536C10EF4E0950B2EBA2FA02DDA
:1011C0000B01B90190010C01CA01A0011124FF27F4
:1011D000591B99F0593F50F4503E68F11A16F040EF
:1011E000A22F232F342F4427585FF3CF46953795EE
:1011F0002795A795F0405395C9F77EF41F16BA0BB3
:10120000620B730B840BBAF09150A1F0FF0FBB1F60
:10121000661F771F881FC2F70EC0BA0F621F731FA9
:10122000841F48F4879577956795B795F7959E3F06
:1012300008F0B3CF9395880F08F09927EE0F979594
:10124000879508950CD0BAC0B2D040F0A9D030F044
:1012500021F45F3F19F09BC05111E4C09EC0BFD084
:1012600098F39923C9F35523B1F3951B550BBB276D
:10127000AA2762177307840738F09F5F5F4F220F1A
:10128000331F441FAA1FA9F333D00E2E3AF0E0E813
:1012900030D091505040E695001CCAF729D0FE2F5F
:1012A00027D0660F771F881FBB1F261737074807F1
:1012B000AB07B0E809F0BB0B802DBF01FF279358A7
:1012C0005F4F2AF09E3F510568F061C0ABC05F3FA1
:1012D000ECF3983EDCF3869577956795B795F7958F
:1012E0009F5FC9F7880F911D9695879597F9089587
:1012F000E1E0660F771F881FBB1F62177307840723
:10130000BA0720F0621B730B840BBA0BEE1F88F731
:10131000E0950895E89409C097FB3EF49095809578
:10132000709561957F4F8F4F9F4F9923A9F0F92FAB
:1013300096E9BB279395F695879577956795B79529
:10134000F111F8CFFAF4BB0F11F460FF1BC06F5F0F
:101350007F4F8F4F9F4F16C0882311F096E911C021
:10136000772321F09EE8872F762F05C0662371F042
:1013700096E8862F70E060E02AF09A95660F771F56
:10138000881FDAF7880F9695879597F9089597F94A
:101390009F6780E870E060E008959FEF80EC08951B
:1013A00000240A9416161706180609060895002444
:1013B0000A9412161306140605060895092E0394BE
:1013C000000C11F4882352F0BB0F40F4BF2B11F432
:1013D00060FF04C06F5F7F4F8F4F9F4F089557FD91
:1013E0009058440F551F59F05F3F71F04795880F93
:1013F00097FB991F61F09F3F79F08795089512162A
:1014000013061406551FF2CF4695F1DF08C01616D5
:1014100017061806991FF1CF869571056105089486
:101420000895E894BB2766277727CB0197F908959D
:10143000EE0FFF1F0590F491E02D0994EF920F93AA
:101440001F93CF93DF93E80147FF02C034E101C04F
:1014500034E0E42FFF27E7FDF095F7FF03C0F19597
:10146000E195F109E32E022F2E2FAE0107D0CE0118
:10147000DF91CF911F910F91EF9008956F927F921E
:101480009F92AF92BF92CF92DF92EF92FF920F9313
:101490001F93CF93DF93CDB7DEB729970FB6F8949C
:1014A000DEBF0FBECDBF6A01B22E102F0C3320F469
:1014B000FF24F394F00E02C04CE3F42E0F2D27E02E
:1014C000AE014F5F5F4F57D17981272F29702130AF
:1014D00031F0E1FC06C0E0FC06C060E005C06DE252
:1014E00003C06BE201C060E2AE2DA07173FF36C095
:1014F000662311F084E001C083E08B1510F4B81A64
:1015000001C0B12CA1110BC0F6018B2D90E28823F4
:1015100019F091938150FBCFCB0CD11CB12C6623D9
:1015200031F0F601608396012F5F3F4F6901C601DC
:101530000396E2FE05C02EE4F601208331E404C0E8
:101540002EE6F601208331E631832283FC012B2D28
:1015500030E22223F1F131932150FBCF72FF40C0E2
:10156000662311F084E001C083E08B1510F4B81AF3
:1015700001C0B12CA1110BC0F6018B2D90E2882384
:1015800019F091938150FBCFCB0CD11CB12C662369
:1015900031F0F601608396012F5F3F4F6901C6016C
:1015A0000396E2FE07C029E4F60120832EE421839E
:1015B00026E406C029E6F60120832EE6218326E6EE
:1015C0002283FC012B2D30E2222319F0319321508C
:1015D000FBCFFC01EB0DF11D10828EEF9FEFB7C02A
:1015E000B1E0611101C0B0E04B2F50E018161906B0
:1015F00024F49C012F5F3F4F02C021E030E0240F14
:10160000351F112329F0412F50E04F5F5F4F02C07B
:1016100040E050E0420F531F2B2D30E0421753079C
:1016200014F4B41A01C0B12C2E2D287159F4F6010E
:101630002B2D30E2222319F031932150FBCFCB0C1C
:10164000D11CB12CBB2331F0F601608396012F5FD2
:101650003F4F6901A1110BC0F6012B2D30E322236E
:1016600019F031932150FBCFCB0CD11CB12CF80ECB
:101670000A81372F3071A32E74FF03C0013309F4A0
:10168000FA941F142CF42F2D293018F028E001C0F3
:1016900021E0682F392F97FF02C060E030E0462F2D
:1016A000532F612C712C3EE2932EBC01621B7109F9
:1016B0009B01DC01A41BB50BE1E0F0E0EC0FFD1F8A
:1016C000AE0FBF1FE12EF12CF194E194F1084F3FD2
:1016D000FFEF5F0731F4F6019082B6016F5F7F4F35
:1016E0006B01841795074CF02417350734F4BD01BE
:1016F000660D771DFB01118101C010E341505109B6
:10170000FFEF6F1A7F0AB6016F5F7F4F4E155F05BF
:1017100024F0F60110836B01DACF4817590739F42A
:10172000063320F4053319F4A11001C011E3F601CA
:101730001083FB018B2D90E2882319F09193815047
:10174000FBCFFB01EB0DF11D108280E090E02996AC
:101750000FB6F894DEBF0FBECDBFDF91CF911F91C2
:101760000F91FF90EF90DF90CF90BF90AF909F9040
:101770007F906F900895283008F027E03327DA0132
:10178000990F311D87FD916000966105710539F44F
:1017900032602E5F3D9330E32A95E1F708959F3F35
:1017A00030F080387105610509F03C5F3C5F3D9386
:1017B000913008F08068911DDF93CF931F930F93B2
:1017C000FF92EF92192F987F9695E92F969596950F
:1017D000E90FFF27EA55FE4F99273327EE24FF2410
:1017E000A701E70105900894079428F4360FE71E37
:1017F000F81E491F511D660F771F881F991F0694F9
:10180000A1F70590079428F4E70EF81E491F561F0C
:10181000C11D770F881F991F661F0694A1F70590B9
:10182000079428F4F80E491F561FC71FD11D880FB3
:10183000991F661F771F0694A1F70590079420F45F
:10184000490F561FC71FD81F990F661F771F881F84
:101850000694A9F784911095177041F0D695C79515
:1018600057954795F794E7941A95C1F7ECE4F1E0A2
:1018700068941590159135916591959105907FE249
:101880007395E118F10A430B560BC90BD009C0F749
:10189000E10CF11E431F561FC91FD01D7EF470338B
:1018A00011F48A95E6CFE894015030F0080F0AF45D
:1018B0000027021708F4202F2395022F7A3328F0EF
:1018C00079E37D932A95E9F710C07D932A9589F6EF
:1018D000069497956795379517951794E118F10A2F
:1018E000430B560BC90BD00998F023957E91739545
:1018F0007A3308F070E37C932013B8F77E9170611F
:101900007D9330F0839571E37D9370E32A95E1F741
:101910001124EF90FF900F911F91CF91DF919927A4
:0A19200087FD90950895F894FFCF1D
:10192A00FFFF00831000000104100000018208007C
:0E193A0000010000000000000000000000009E
:00000001FF
